:020000040800F2
:10000000502D00207D020008672E0008DF2A00081E
:10001000652E00083D0A0008375C0008000000005B
:100020000000000000000000000000002938000867
:10003000B50A00080000000019310008C3390008A3
:10004000970200089702000897020008970200082C
:10005000970200089702000897020008970200081C
:10006000970200089702000897020008970200080C
:1000700097020008970200089702000897020008FC
:1000800097020008970200089702000897020008EC
:1000900097020008970200089702000897020008DC
:1000A0009702000897020008713A000897020008BA
:1000B00097020008970200089702000897020008BC
:1000C00097020008970200089702000897020008AC
:1000D00097020008CD3F0008970200089702000829
:1000E000970200089702000897020008970200088C
:1000F000970200089702000897020008970200087C
:10010000970200089702000897020008970200086B
:10011000ED3C0008970200089702000897020008CB
:10012000970200089702000897020008970200084B
:10013000970200089702000897020008970200083B
:10014000970200089702000897020008692E00082D
:10015000970200089702000897020008D93F00089C
:10016000970200089702000897020008970200080B
:10017000970200089702000897020008000000009C
:10018000970200089702000800F002F800F067F8F4
:100190000AA090E8000C82448344AAF10107DA45E2
:1001A00001D100F05CF8AFF2090EBAE80F0013F0CD
:1001B000010F18BFFB1A43F0010318478C680000B9
:1001C000AC6800000A444FF0000C10F8013B13F03B
:1001D000070408BF10F8014B1D1108BF10F8015BA0
:1001E000641E05D010F8016B641E01F8016BF9D193
:1001F00013F0080F1EBF10F8014BAD1C0C1B09D1EA
:100200006D1E58BF01F801CBFAD505E014F8016B5B
:1002100001F8016B6D1EF9D59142D6D370470000ED
:100220000023002400250026103A28BF78C1FBD8FF
:10023000520728BF30C148BF0B607047642900F0E7
:10024000FB80752900F0F880732900F09C82002063
:1002500070471FB506F05EFB1FBD10B510BD00F066
:100260009BFA1146FFF7F5FF06F02DFB00F0B9FAF7
:1002700003B4FFF7F2FF03BC00F0BCFA0948804763
:1002800009480047FEE7FEE7FEE7FEE7FEE7FEE778
:10029000FEE7FEE7FEE7FEE704480549054A064B90
:1002A000704700005D3A00088901000850270020CF
:1002B000502D0020502900205029002053EA020C24
:1002C00000F069802DE9F04B4FF00006002B1FBFB6
:1002D000B3FA83F503FA05F424FA05F65E4012BF7B
:1002E0001643B2FA82F502FA05F4C5F120051EBFE5
:1002F00022FA05FC44EA0C04203556EA044C4FEA85
:10030000144418BF641C4FF000084FF000099042DD
:1003100071EB030C39D3002919BFB1FA81F701FA47
:1003200007F6B0FA80F700FA07F6C7F120071EBFFC
:1003300020FA07FC46EA0C062037B6FBF4FCA7EBD4
:100340000507103F07F01F0BCBF120060CFA0BFB43
:100350002CFA06F644BFB3460026202FA4BF5E4603
:100360004FF0000B5BEA060C08BF4FF0010B19EBD6
:100370000B09ABFB027C48EB0608C01B06FB02CC5A
:100380000BFB03CC71EB0C01C1E70B460246414667
:100390004846BDE8F08B13B54FF000004FF0000168
:1003A000AFF30080BDE81C40704700000FB47CB57F
:1003B0000C0009AA009001D02044401E084B7B4449
:1003C00069460190089800F0ACF905461CB1002080
:1003D000694600F0B9F928467CBC5DF814FB0000C2
:1003E0009103000070B50C460546012A05D0287817
:1003F000800600D5EA69002302E0012305E05B1CCA
:10040000934202D2E05C0028F9D1A869E618C01A2C
:10041000A861286A184428622846AFF3008004E0E7
:10042000D5E9012114F8010B9047B442F8D32846CE
:10043000AFF3008070BD00002DE9F04106460024B6
:1004400010687529314616A510D0AFF3008000283A
:1004500002DA404213A507E031688A0701D512A5E8
:1004600002E0490704D511A5012401E0AFF30080A3
:1004700000210A2206F1240709E0B0FBF2FCB0FBE0
:10048000F2F302FB1C00303078541846491C002857
:10049000F3D123462A463046BDE8F04100F0E2B8E9
:1004A000000000002D0000002B00000020000000D4
:1004B0002DE9F0410F460546002028622846E968EC
:1004C000884770B3252805D0D5E901219047286ACF
:1004D000401CF2E7E9682846002688476C28044655
:1004E0000AD0682C08D04C2C35D06A2C31D0742C12
:1004F00031D07A2C2FD016E0E96806462846884786
:10050000B042044608D16C2E23D04FF480662846B2
:10051000E9688847044606E06C2E03D04FF48076E5
:1005200001E01EE04026E4B1A4F14100192802D800
:10053000203446F400663A46214628462E60FFF7EE
:100540007DFE60B1012808D0FF1D27F0070708379E
:10055000B4E78026DBE70026D9E73F1DAEE720465B
:10056000B2E7286ABDE8F08110B5203AC0F00B80F0
:10057000B1E81850203AA0E81850B1E81850A0E8A7
:100580001850BFF4F5AF5FEA027C24BFB1E8185001
:10059000A0E8185044BF18C918C0BDE810405FEA71
:1005A000827C24BF51F8043B40F8043B08BF7047ED
:1005B000D20728BF31F8023B48BF11F8012B28BFF2
:1005C00020F8023B48BF00F8012B70474FF00002B3
:1005D0000429C0F0128010F0030C00F01B80CCF155
:1005E000040CBCF1020F18BF00F8012BA8BF20F8C3
:1005F000022BA1EB0C0100F00DB85FEAC17C24BF17
:1006000000F8012B00F8012B48BF00F8012B7047C0
:100610004FF0000200B5134694469646203922BF9B
:10062000A0E80C50A0E80C50B1F12001BFF4F7AFE6
:10063000090728BFA0E80C5048BF0CC05DF804EBC8
:10064000890028BF40F8042B08BF704748BF20F836
:10065000022B11F0804F18BF00F8012B7047704734
:10066000704770472DE9F0470D469946924604467B
:1006700000F124080168880604D5E06921F0100122
:10068000216000E00120A84201DD471B00E00027B7
:10069000A1697A1902EB0900081AA0612078C00646
:1006A00002D42046AFF30080002608E0D4E90121FF
:1006B0001AF806009047206A401C761C20624E45BE
:1006C000F4DB2078C0060AD52046AFF3008006E0B0
:1006D000D4E9012130209047206A401C2062381E56
:1006E000A7F10107F4DC07E0D4E9012118F80500BF
:1006F0009047206A401C2062281EA5F10105F3DC0A
:100700002046AFF300802078000602D50220BDE825
:10071000F0870120FBE7000001694A1C02610878AC
:10072000704700B58FB0CDE9013100210591054931
:100730007944CDE9031011466846FFF7B9FE0FB0C2
:1007400000BD0000E5FFFFFF0A6802F8010B0A6028
:100750007047D1E900239A4202D2531C0B601070FB
:10076000704710B5436913B1AFF3008001E0FFF7A4
:1007700039FE012010BD127800F124010A70002218
:100780004A700122EDE711684FF0FF32E9E70000FF
:1007900000487047EC2600207546FFF7F9FFAE468B
:1007A00005006946534620F00700854618B020B57D
:1007B000FFF772FDBDE820404FF000064FF0000744
:1007C0004FF000084FF0000B21F00701AC46ACE8F9
:1007D000C009ACE8C009ACE8C009ACE8C0098D4666
:1007E000704710B50446AFF300802046BDE81040C6
:1007F000FFF73EBD01491820ABBEFEE72600020010
:10080000704770B504002AD0206840B3056835B33E
:10081000406820B3284601F0A8FD10B92068406860
:100820008047A088E968884219D8206881682846EE
:1008300001F010FC02280AD120688168284601F0E6
:1008400049FE60B920688168284601F003FC012850
:1008500005D120688168284601F0D8FD08B1012043
:1008600070BD2068806840B104280AD00828A0889C
:1008700029680AD00864002070BD2968A0884863F0
:10088000F9E72968A0888863F5E7C863F3E738B11A
:1008900002682AB1116819B18088CB68984201D9E1
:1008A0000120704792683AB1042A08D00968082AE2
:1008B00008D008640020704709684863FAE70968AF
:1008C0008863F7E7C863F5E770B50D46044600F0A6
:1008D0000DF838B1044800EBC4008580BDE87040D5
:1008E000FFF78FBF012070BD0C010020062801D347
:1008F000002070470120704770B50D460446FFF791
:10090000F5FF38B1044800EBC4008580BDE87040B5
:10091000FFF7BDBF012070BD0C01002038B1006899
:1009200028B1016819B1406808B100207047012062
:10093000704710B50446FFF7F1FF88B920680468D6
:1009400094F8411011B194F8421009B940688047F9
:1009500094F8410020B194F8420008B1002010BD85
:10096000012010BD002804D0022803D0032801D0A4
:10097000012070470220704710B50446FFF7CEFFF4
:1009800050B92068006890F8411029B190F84100F2
:10099000202803D0022010BD012010BD002010BD72
:1009A000FFF7C7BF70B50E001446054605D034B139
:1009B000FFF7BFFF28B1012070BD002AFBD1002046
:1009C00070BDD5E9000322460068314602F036F8D2
:1009D000BDE87040FFF7C6BFF0B5002828D0002959
:1009E00026D0EFF3108372B600244FF40075114A3D
:1009F000114EA64617E0D788AF4202D301201070EF
:100A000013E0075DB2F802C006F80C7057887F1C2F
:100A100057805788AF4201D3A2F802E0D7887F1CE5
:100A2000D780641CA4B28C42E5D3002B00D162B6FF
:100A3000F0BD00000401002024200020FEE700207B
:100A4000704700207047000010B500220449054897
:100A500003F0AEFC0449034803F09DFC002010BDE8
:100A600020110020440400202009002010B5044675
:100A7000088881B22046FFF7AFFF2146034803F004
:100A80008AFC024803F060FC002010BD44040020F2
:100A90000020704710B530B104490860044801F0E7
:100AA00099FA002800D0012010BD00005401002058
:100AB0004C020020704772B6FEE72DE9F041044673
:100AC000876D00F05FF9064694F83500002502288E
:100AD00006D08020606584F834500120BDE8F081A4
:100AE0002068016821F0160101602068416921F049
:100AF00080014161206C08B9A06C20B120680168B8
:100B000021F0080101602068016821F00101016005
:100B10000CE000F037F9801B052807D9202060651C
:100B2000032084F8350084F83450D7E72068006843
:100B3000C007EED194F85C103F208840B8600120D7
:100B400084F8350084F834500020C7E790F8351059
:100B5000022903D08021416501207047052180F8DA
:100B600035100068016821F0010101600020704724
:100B700070B5044600F006F90546601C02D0044832
:100B80000078044400F0FEF8401BA042FAD370BD88
:100B9000640000202DE9F84FDFF8BCA100220125F8
:100BA00003264FF00F090AF1040BAAF1040E00BF4F
:100BB0000B6805FA02F42340A34270D10F7907F0C5
:100BC0000307012F01D0022F16D187684FEA420890
:100BD00006FA08FC27EA0C07D1F80CC00CFA08FC4E
:100BE0004CEA070CC0F808C04768A7430C79C4F367
:100BF000001494403C4344600C79E443A4070AD0B9
:100C0000C4684FEA420C06FA0CF7BC438F6807FA37
:100C10000CF72743C7600C7904F00304022C12D1AF
:100C2000D40800EB840CDCF820405707FF0E09FACB
:100C300007F824EA0804D1F8108008FA07F848EA0F
:100C40000408CCF8208004684FEA420C06FA0CF73E
:100C5000BC430F7907F0030707FA0CF72743076037
:100C60004C6814F4403F70D03C4C276847F48047F0
:100C70002760246822F0030704F480440094384C71
:100C800007EB040CDCF8084897074FEA177809FAD5
:100C900008F7BC43334FB84202D1002724E054E0A8
:100CA000314FB84201D101271EE0304FB84201D187
:100CB000022719E02E4FB84201D1032714E02D4F2F
:100CC000B84201D104270FE02B4FB84201D10527CC
:100CD0000AE02A4FB84201D1062705E0284FB84262
:100CE00001D1072700E0082707FA08F72743CCF8C7
:100CF0000878DAF800405746D1F804C09C435FEA10
:100D0000CC2C00D51C433C60DBF800405F46D1F89A
:100D100004C09C435FEA8C2C00D51C433C60DEF889
:100D200000407746D1F804C09C435FEA8C3C00D574
:100D30001C433C60084F083F3C68D1F804C09C430A
:100D40005FEACC3C00D51C433C60521C102AFFF4E7
:100D50002FAFBDE8F88F0000083C01404438024046
:100D60000030014000000240000402400008024040
:100D7000000C024000100240001402400018024023
:100D8000001C024001488068704700006400002099
:100D90000248816802781144816070476400002035
:100DA0000B4810B5016841F400710160016841F41D
:100DB00080610160016841F480710160032000F0EE
:100DC0006FF80F2000F006F800F024F8002010BDA6
:100DD000003C024070B50D4D04464FF47A712878FE
:100DE000B1FBF0F00A490968B1FBF0F001F02CF812
:100DF00048B9102C07D200222146501E00F030F8CE
:100E000000206C6070BD012070BD000064000020F7
:100E1000700000200A4808B5016841F48041016073
:100E2000006800F4804000900548001F016841F010
:100E300080510160006800F08050009008BD000003
:100E400044380240002809DB00F01F0201219140D4
:100E50004009800000F1E020C0F800117047000058
:100E6000F0B40E4B1B680C46C3F30223C3F1070515
:100E7000042D00D90425191D072901D2002300E003
:100E8000DB1E012606FA05F1491E214099409E40CD
:100E9000761E16403143F0BC05F005BD0CED00E0B8
:100EA000064900F0070208684FF6FF03184040EAC1
:100EB0000220034A10430860704700000CED00E078
:100EC0000000FA0570470068416200207047F0B5E5
:100ED0000368586A39B19C6A4FF4827600EB144477
:100EE00000204D1E0AE040EA024098620FE006EB47
:100EF0008007DF59401C04EB1744C0B2A842F6D368
:100F000044EA02404FF4807202EB81015850002005
:100F1000F0BDD0F8E00403F036BD01EBC10200EBF8
:100F20008202D0F8E004126A03F087BC01EBC10230
:100F300000EB8202D0F8E004D2F8602203F0D9BCC2
:100F4000D0F8E00403F021BD0A0601F00F0101EB27
:100F5000C10100EB810101D5143101E001F51571EA
:100F6000006804F007BC70B504460B0601F00F00E2
:100F700000EBC00104EB81014FF001024FF00005CE
:100F800002D54A75143103E081F8555201F5157107
:100F9000087094F89404012808D084F894242068F8
:100FA00004F002F984F89454002070BD022070BD52
:100FB00070B5044601F00F002279904201D901205A
:100FC00070BD0B0601F00F0101EBC10104EB8101C3
:100FD0004FF001024FF0000502D54A75143103E0CD
:100FE00081F8555201F515718D70087094F89404CC
:100FF000012808D084F89424206804F047FA84F883
:101000009454002070BD022070BD01F00F0101EB6F
:10101000C10100EB8100D0F8680270472DE9F04172
:1010200004460F0601F00F0000EBC00104EB810144
:101030004FF001064FF0000502D54E75143103E064
:1010400081F8555201F51571C2F30A0208708A60E1
:101050000B714A7802B14883022B00D14D7194F88C
:101060009404012809D084F89464206803F0EAFF0E
:10107000284684F89454BDE8F0810220FBE710B5BF
:1010800001F00F0404EBC40100EB8101C1E99823D6
:101090000023C1F8683281F8553281F854428379CF
:1010A00001F51571012B00D1CA618279006804F045
:1010B00045FA002010BD70B504460D4601F00F0042
:1010C0002179884201D9012070BD29064FF0000620
:1010D0004FF0010206D500EBC00104EB81014A7517
:1010E000143107E005EBC50104EB810181F855627D
:1010F00001F515718A70087094F89404012807D0DE
:1011000084F89424206804F0EDF9280702D007E061
:10111000022070BDA17904F29C42206804F08AF993
:1011200084F89464002070BD10B501F00F0404EB46
:10113000C40100EB8101C1E9082300238B62012374
:101140004B7501F8144F8379012B00D1CA61827964
:10115000006804F0F3F9002010BD00002DE9FC5FE9
:1011600005680446284604F0A1FB00287DD12068CC
:1011700004F0C8FB002878D0D5F80808C0F30D208B
:10118000C4F8D404206804F0BDFB800704D52068AF
:10119000416901F002014161206804F0B3FBC1061E
:1011A00004F29C40009034D52068816921F0100140
:1011B00081612F6A07F00F0000EBC00004EB80068E
:1011C000C7F3434006F51576022802D0062811D051
:1011D0001AE047F6F070074216D0C7F30A12174616
:1011E0002846F16804F092FBF0683844F0607069BA
:1011F000384408E008222846009904F087FB70690B
:10120000C7F30A11084470612068816941F0100138
:101210008161206804F076FB00034FF0080B4FF06B
:10122000000A4FF001097CD50026206804F049FB34
:10123000074674E0F80770D0F1B2206804F05AFB5A
:101240008046C00707D005EB4611C1F8089B314620
:10125000204601F00FFE5FEA087024D505EB461129
:10126000C1F808BB2068016C00E023E200EB4610E7
:101270000191D0F8082BFB4B994205D9110403D5F5
:101280004FF40041C0F8081B204600F0F6FAF5497B
:101290000198884207D9A079012804D1206801214A
:1012A000009A04F0C7F85FEAC86004D505EB461160
:1012B0001020C1F8080B5FEA88701DD56869000628
:1012C00005D5D5F8040840F48061C5F8041806EB8C
:1012D000C60004EB800090F8571200F51570012944
:1012E00005D180F803A0F1B2204600F0E9F905EB42
:1012F00046110220C1F8080B5FEA886004D505EBAF
:1013000046102021C0F8081B5FEA884005D505EB90
:1013100046104FF40051C0F8081B7F08761C002FC0
:1013200088D1206804F0EEFA40036ED5206804F0FE
:10133000C1FA0746002666E0F80762D0F1B22068DD
:1013400004F0C6FA8046C00723D006F00F01D5F896
:10135000342809FA01F18A43C5F8342805EB46110F
:10136000C1F80899A07901280FD106EBC60004EB5B
:101370008000D0E907211144016236B9606A20B9C2
:1013800020680121009A04F055F8F1B22046FFF7D9
:10139000C4FD5FEA087003D505EB4611C1F808B932
:1013A0005FEAC86004D505EB46111020C1F80809B2
:1013B0005FEA486004D505EB46104021C0F80819E3
:1013C0005FEA887016D53146284604F044FA06EBE9
:1013D000C60004EB8000C17D1430012905D180F8DE
:1013E00003A0F1B2204600F067F905EB4611022098
:1013F000C1F808095FEA086003D53146204601F0CC
:101400009FFD7F08761C002F96D1206804F07AFAA1
:10141000002811DAD5F8040820F00101C5F80418F5
:1014200094F8CC0401282BD0204600F00BFA206859
:10143000416901F000414161206804F063FA000550
:101440000BD5D5F80808C00702D0204600F03EFAB8
:101450002068416901F400614161206804F052FA9A
:10146000C00467D5D5F8040820F00100C5F80408C9
:101470001021206804F0EFF900214FF67F3220E0C0
:1014800084F8CCA400212046FFF71CFDCFE700BF65
:1014900005EB4110C0F80829D0F8003923F40013F7
:1014A000C0F80039C0F8082BD0F8003B23F4001333
:1014B000C0F8003BD0F8003B43F00063C0F8003BAD
:1014C000491C20798842E3D8D5F81C0840F0011166
:1014D000C5F81C18E07B002828460DD0D0F88408F9
:1014E00040F00B01C5F88418D5F8440840F00B0112
:1014F0002846C5F844180DE0D0F8140842F22B0134
:101500000843C5F81408D5F8100840F00B01284628
:10151000C5F81018D0F8000820F4FE61C5F80018CE
:10152000A1792068009A03F085FF2068416901F4E1
:1015300080514161206804F0E5F9800415D52068E8
:1015400003F0C0FD206804F0A4F9E07100F070FA27
:101550000146E279206804F037FA204600F05CF991
:101560002068416901F400514161206804F0CAF922
:10157000000707D5204600F069F92068416901F0AD
:1015800008014161206804F0BDF9000616D5A8697C
:1015900020F08001A96101260DE000BF06EBC60026
:1015A00004EB800090F85702012803D1F1B22046E5
:1015B000FFF7CAFC761C2079B042EFD8206804F00F
:1015C000A1F9C0021FD501264F4614E005EB4610D5
:1015D000D0F8000906EBC60104EB81010A7E012A5E
:1015E00008D1002806DACF75F0B240F0800120461D
:1015F000FFF7AAFC761C2079B042E7D82068416941
:1016000001F480114161206804F07CF9800234D536
:1016100001204A4629E000BF05EB4011D1F8001B2C
:1016200000EBC00304EB830393F85862012E1BD137
:10163000002919DA94F8D464C1F3004106F00106D8
:101640008E4211D183F85722A96941F08003AB6122
:101650006969090608D4D5F8040840F40070C5F893
:10166000040805E00A30544F401C21798142D3D848
:101670002068416901F400114161206804F042F9D9
:10168000400007D52046FFF744FC2068416901F07F
:1016900080414161206804F035F940070AD520688F
:1016A0004568680702D52046FFF74AFC2068416874
:1016B00029434160BDE8FC9FD0F8E00403F0B7B9CE
:1016C000D0F8E00403F0C7B9F8B5040005D094F8E9
:1016D00095042668002510B106E00120F8BD84F8C5
:1016E0009454204600F056F8032084F89504B6F18F
:1016F000A04F00D1A571206803F096FE207C8DF8E4
:10170000000094E80F0003F0EBFC0226B8BB0021B8
:10171000206804F01AF990BB002001270DE000BFFB
:1017200000EBC00104EB81014F750875C8850D768B
:10173000CD610D62401CC0B24D6221798142EFD86B
:10174000002011E000EBC00104EB810181F855524B
:1017500081F8540281F85852C1F85C52C1F86052C5
:10176000401CC0B2C1F8645221798142EAD8207C81
:101770008DF8000094E80F0003F098FD10B184F894
:101780009564AAE7657484F89574206803F080FD79
:101790000020F8BD10B586B0044614216846FEF757
:1017A00037FF2068B0F1A04F2FD1194800210268FF
:1017B00042F001020260006800F0010005904FF461
:1017C000C05000900220CDE90101032003900A20BF
:1017D000049069460F48FFF7DDF90D48001D0168C8
:1017E00041F0800101600A481430016841F48041F1
:1017F00001600068002200F48040059011464320FB
:10180000FFF72EFB4320FFF71DFB06B010BD0000C5
:10181000303802400000024070B50446C07901250E
:1018200070B1022801D0FFF746F92946D4F8E00448
:1018300003F080F9D4F8E004BDE8704003F034B957
:101840000025F2E7D0F8E00403F05DB9D0F8E00439
:1018500003F063B910B5044690F8940401280AD047
:10186000012084F894046174206804F09CF800203E
:1018700084F8940410BD022010BDD0F8E02400F2DA
:101880009C41104603F062B910B50446006894F814
:101890009414012909D0012184F89414C1684906DF
:1018A00009D5617B012902D005E0022010BD816BC2
:1018B00041F480318163206803F0ABFF206803F0BE
:1018C000D9FC002084F8940410BD000010B5044633
:1018D000D0F8E00403F07CF92068D0F8001E41F055
:1018E0000101C0F8001EE07A002804D00248016817
:1018F00041F00601016010BD10ED00E02DE9F04758
:101900000E46050065D0DFF81481D8F80000F7B264
:1019100000F00700B04207D288F80070D8F8000045
:1019200000F00700B04254D128683D4C810712D521
:10193000400703D5206840F4E05020602878000775
:1019400003D5206840F4604020602068A96820F03A
:10195000F000084320602878C0072DD0304968681F
:101960000839012812D0022813D0032811D00968A1
:10197000890700292DDA216821F003010143216044
:10198000FFF700FA814641F2883A0EE009688903C0
:10199000EFE709688901ECE7FFF7F4F9A0EB09012B
:1019A000514502D90320BDE8F0872068696800F03E
:1019B0000C00B0EB810FEFD1D8F80010404601F0D9
:1019C0000701B14207D90770006800F00700B04274
:1019D00001D00120E7E72878400705D52068E968AD
:1019E00020F4E050084320602878000706D52068DE
:1019F000296920F4604040EAC100206000F03EF810
:101A00002168084AC1F30311515CC84006490860C7
:101A100006480068FFF7DEF90020C4E7003C0240FA
:101A2000083802401E69000870000020680000208D
:101A30000148006870470000700000200448054914
:101A400000680968044AC1F38221515CC8407047AC
:101A500070000020083802402E690008044805493B
:101A600000680968044AC1F34231515CC8407047BC
:101A700070000020083802402E690008154810B593
:101A8000006810F00C02144813D04110042A0FD043
:101A9000082A0ED10F4C241F2268236802F03F024F
:101AA0005B0207D52068C0F38810A0FB010106E0A7
:101AB000084610BD2168C1F38811A1FB0001002375
:101AC000FEF7FCFB2168C1F30141491C4900B0FB52
:101AD000F1F010BD083802400024F4002DE9F84F61
:101AE00004006ED02078DFF84C93C007A9F10405FC
:101AF0004AD009F104000168C1F38101012908D02D
:101B00000068C0F3810002280AD1D9F80000400221
:101B100006D52868800337D560680028E1D033E017
:101B20006068B0F5803F10D0B0F5A02F286810D0C5
:101B300020F480302860286820F4802028606068C5
:101B4000A8B1FFF71FF906460DE0286840F4803081
:101B5000F4E740F480202860F7E700BFFFF712F9B0
:101B6000801B642873D828688003F7D50CE0FFF742
:101B700009F9064605E000BFFFF704F9801B642859
:101B8000F0D828688003F7D42078DFF8AC8280078B
:101B90004FF0000A3ED5A748001D016811F00C0F58
:101BA00008D00068C0F3810002280BD1D9F80000EA
:101BB000400207D42868800716D5E068012800D1C4
:101BC00012E033E1E068B8B10120C8F80000FFF787
:101BD000D9F8064605E000BFFFF7D4F8801B0228BD
:101BE000C0D828688007F7D52868216920F0F80058
:101BF00040EAC10028600DE0C8F800A0FFF7C2F875
:101C0000064604E0FFF7BEF8801B02281FD82868AC
:101C10008007F7D42078000722D5864F874861696E
:101C2000703771B101210160FFF7ACF8064604E09E
:101C3000FFF7A8F8801B022809D838688007F7D575
:101C40000EE0C0F800A0FFF79DF8064605E082E030
:101C5000FFF798F8801B02287DD838688007F7D4F2
:101C60002078400768D5DFF8CCB100270BF13C0B9A
:101C7000DBF80000C0000BD4DBF8001041F080510D
:101C8000CBF80010DBF80000012700F08050009036
:101C90006B4E3068C00510D4306840F480703060FE
:101CA000FFF770F8009005E0FFF76CF80099401A14
:101CB000022850D83068C005F6D55E4EA0686C3654
:101CC00001280FD00528306810D020F001003060C6
:101CD000306820F004003060A068B8B1FFF752F817
:101CE00000900FE0306840F00100F4E740F004009D
:101CF0003060F7E7FFF746F80099411A41F2883063
:101D0000814266D830688007F4D50EE0FFF73AF8D4
:101D1000009007E0FFF736F80099411A41F2883049
:101D2000814256D830688007F4D42FB1DBF8001018
:101D300021F08051CBF80010A069C8B33D49091DBE
:101D40000968C1F3810102294AD00228504607D010
:101D5000C8F8600000E03CE0FFF714F804463BE000
:101D60004746C8F86000FFF70DF8064605E000BFDB
:101D7000FFF708F8801B02282BD828688001F7D4C9
:101D8000D4E907010843A16A2E4A490802EB014140
:101D9000626A41EA8211084394F82C1040EA01611A
:101DA000C9F8001001203866FEF7ECFF044606E093
:101DB0003EE000BFFEF7E6FF001B022809D82868B6
:101DC0008001F7D534E000BFFEF7DCFF001B0228DE
:101DD00002D90320BDE8F88F28688001F4D427E0F9
:101DE0000128F7D0D9F80000E26900F4800191429F
:101DF0001CD1226A00F03F01914217D147F6C07111
:101E0000626A0140B1EB821F10D1A26A4FF0FF332A
:101E100000F4403103EB5202B1EB024F06D194F8CB
:101E20002C1000F07060B0EB016F01D00120D1E701
:101E30000020CFE70438024000004742800E4742AE
:101E4000007000400000FFFF10B5401EB0F1807F21
:101E500001D3012010BD4FF0E02460610F21601715
:101E600004F021FD0020A06107202061002010BDAA
:101E70007047704770B590F83C20012A32D0012499
:101E800080F83C40022280F83D2003685A689D6833
:101E900022F070060A6832435A60134B02689A4275
:101EA00014D0B2F1804F11D0104B9A420ED0104B8B
:101EB0009A420BD00F4B9A4208D00F4B9A4205D052
:101EC0000E4B9A4202D00E4B9A4204D1496825F03B
:101ED00080031943916080F83D40002180F83C1058
:101EE000084670BD022070BD0000014000040040A3
:101EF00000080040000C0040000401400040014088
:101F00000018004010B5040003D094F83D0010B153
:101F100007E0012010BD002084F83C00204600F0BE
:101F20001FF8022084F83D00211D206801F0A6FD65
:101F3000012084F8460084F83E0084F83F0084F8CD
:101F4000400084F8410084F8420084F8430084F89B
:101F5000440084F8450084F83D00002010BD0000D6
:101F600008B501681748814212D11748016841F449
:101F7000802101600068002200F48020009011465A
:101F80001A20FEF76DFFBDE808401A20FEF75ABF81
:101F90000D480E4A001F914207D1016841F08001AF
:101FA0000160006800F0800009E0094A914207D111
:101FB000016841F480710160006800F48070009055
:101FC00008BD00000048014044380240001C0040A9
:101FD0000020004090F83D10012901D001207047F9
:101FE000022180F83D100168CA6842F00102CA600F
:101FF00000681149884214D0B0F1804F11D00F49C8
:1020000088420ED00E4988420BD00E49884208D033
:102010000D49884205D00D49884202D00C498842BA
:1020200004D1816801F00701062903D0016841F05D
:1020300001010160002070470000014000040040E1
:1020400000080040000C0040000401400040014036
:102050000018004031B1042907D0082908D090F8B1
:102060004100704790F83E00704790F83F0070477D
:1020700090F84000704770472DE9F0410446006831
:10208000C66805694FF00007A90713D5B10711D538
:10209000F91E0161012020772068806980072046B1
:1020A00002D0FFF7E8FF04E000F0F8F8204600F067
:1020B000ABF92777680716D5700714D521686FF03C
:1020C00004000861022020772068806910F4407FB6
:1020D000204602D0FFF7CFFF04E000F0DFF82046F3
:1020E00000F092F92777280715D5300713D5216816
:1020F0006FF008000861042020772068C06980071D
:10210000204602D0FFF7B7FF04E000F0C7F82046F2
:1021100000F07AF92777E80616D5F00614D521687D
:102120006FF010000861082020772068C06910F463
:10213000407F204602D0FFF79EFF04E000F0AEF89B
:10214000204600F061F92777E80708D0F00706D0AD
:1021500021686FF001000861204600F0F9F92806B7
:1021600008D5300606D521686FF08000086120464A
:10217000FFF77EFE680608D5700606D521686FF069
:1021800040000861204600F0F3F9A8060AD5B00621
:1021900008D521686FF0200008612046BDE8F041B5
:1021A000FFF767BEBDE8F081F0B587B004461421A3
:1021B0006846FEF72DFA2268002431490225314E87
:1021C000B2F1804F12D030480923824236D10868DC
:1021D00040F0020008600868694600F002000590BF
:1021E000D0000090CDE90154304645E0086840F049
:1021F00001000860086800F001000590086840F0E0
:10220000020008600868012700F0020005904FF402
:1022100000400090CDE90154CDE9034769461B48D1
:10222000FEF7B8FC08200090CDE90154CDE9034742
:1022300069463046FEF7AEFC07B0F0BD144E1548B7
:10224000B24209D10A6842F020020A60096801F02E
:102250002001059181150BE00F4EB242ECD10A68C6
:1022600042F020020A60096801F020010591711511
:102270000091CDE901546946CDE90343DAE7000056
:1022800030380240000402400018004000000240C4
:10229000001C00400014024000200040704770B550
:1022A000044690F83C0000260D4601280FD001207E
:1022B00084F83C006AB1042A1DD0082A2FD00C2AC9
:1022C0003FD00126002084F83C00304670BD02203B
:1022D00070BD206801F048FC2068816941F0080168
:1022E00081612068816921F0040181612068816930
:1022F0002A69114311E0206801F066FC20688169B9
:1023000041F4006181612068816921F4806181610B
:10231000206881692A6941EA02218161D2E7206847
:1023200001F088FC2068C16941F00801C1612068A2
:10233000C16921F00401C1612068C1692A691143A2
:1023400011E0206801F0AAFC2068C16941F4006135
:10235000C1612068C16921F48061C1612068C169DF
:102360002A6941EA0221C161ACE790F83D0070475B
:1023700010B5040003D094F83D0010B107E001202F
:1023800010BD002084F83C00204600F01FF8022019
:1023900084F83D00211D206801F070FB012084F8C5
:1023A000460084F83E0084F83F0084F8400084F83A
:1023B000410084F8420084F8430084F8440084F823
:1023C000450084F83D00002010BD000008B50168FC
:1023D0000B48B1F1804F0BD00A4A914207D10168F6
:1023E00041F040010160006800F04000009008BD2D
:1023F000016841F001010160006800F00100F5E7AB
:1024000040380240001800407047000010B50446F4
:10241000022249B104290ED0082913D094F84100B2
:10242000012816D0012010BD94F83E000128F9D1F2
:1024300084F83E200FE094F83F000128F2D184F8A0
:102440003F2008E094F840000128EBD184F84020B8
:1024500001E084F841200122206801F077FB164951
:102460002068164A884201D0904203D1436C43F45D
:10247000004343642068884213D0B0F1804F10D0ED
:102480000F4988420DD00F4988420AD00E49884230
:1024900007D0904205D00D49884202D00C498842AD
:1024A00004D1816801F00701062903D0016841F0D9
:1024B00001010160002010BD000001400004014046
:1024C0000004004000080040000C004000400140B3
:1024D0000018004030B504460D460068002201F0A7
:1024E00035FB194B41F2111120688A10984202D035
:1024F000164B984209D1036A0B4206D1036A134274
:1025000003D1436C23F4004343642068036A0B4205
:1025100006D1016A114203D1016821F00101016075
:1025200001203DB1042D08D0082D09D084F84100C8
:10253000002030BD84F83E00FAE784F83F00F7E75A
:1025400084F84000F4E7000000000140000401406E
:10255000002808D000680449884204D10348006874
:10256000002800D000477047004801405401002077
:102570007047704700280BD000680649884201D197
:1025800001F078B90449884202D1022003F000BB6F
:102590007047000000100140004C0040F8B5016891
:1025A00004460868CA684B6910F00F0F4FF0000529
:1025B00059D003F0010602F49077374365D0C10784
:1025C00005D0D10503D5616C41F00101616441077B
:1025D00005D5D90703D0616C41F002016164810720
:1025E00005D5D90703D0616C41F00401616401078E
:1025F00007D502F02001314303D0616C41F008019E
:102600006164616C00293AD0800604D5900602D539
:10261000204601F09FFB20684069616CC0F3801088
:10262000090700D460B3204601F06DFB20684069C3
:10263000400621D52068143050E8001F21F04001E9
:1026400040E80012002AF5D1E06BA8B1724901659B
:10265000E06BFEF77BFA002811D0E06B016D01B052
:10266000BDE8F040084783060FD593060DD52046F8
:10267000BDE8F84001F06EBB2046FFF77BFFF8BDD8
:102680002046FFF777FF6564F8BD266B2023012EF7
:102690007ED1C6067CD5D6067AD5086848680090F3
:1026A00048694FF0020640064DD5E26B106840685D
:1026B0004FF480770004000C3AD0A18D814237D9C5
:1026C000E085D069B8422DD020680C3050E8001F5A
:1026D00021F4807140E80012002AF5D120681430FE
:1026E00050E8001F21F0010140E80012002AF5D156
:1026F0002068143050E8001F21F0400140E800122B
:10270000002AF5D184F84230256320680C3050E867
:10271000001F21F0100140E80012002AF5D1E06B03
:10272000FEF7CBF96663A08DE18D401A81B206E019
:10273000A18D8142A8D1D069B842A5D16663204657
:10274000FFF717FFF8BDA08DE18D401A81B2E08D33
:102750000028F7D00029F5D020680C3050E8002F71
:1027600022F4907240E80027002FF5D12068143041
:1027700050E8002F22F0010240E80027002FF5D199
:1027800084F84230256320680C3050E8002F00E0C8
:1027900006E022F0100240E80023002BF3D1CDE741
:1027A00005062BD5150629D594F841002128C9D155
:1027B000A068B0F5805F01D12069B0B1206A411CEA
:1027C0002162216800784860E08C401E0004000C03
:1027D000E084B7D12068C16821F08001C160206821
:1027E000C16841F04001C160F8BD206A0088C0F3B3
:1027F00008004860206A801C2062E5E74006F3D5A7
:102800005006F1D5CA68204622F04002CA6084F81A
:10281000413000F063F9F8BDF93C000870B50400E0
:1028200004D094F84100002510B106E0012070BDED
:1028300084F84050204600F023F8242084F841001A
:102840002068C16821F40051C160204601F0E4FA1B
:102850002068016921F4904101612068416921F0FB
:102860002A0141612068C16841F40051C16065647A
:10287000202084F8410084F842006563002070BD88
:10288000F0B587B0044614216846FDF7C1FE3E4B03
:10289000276800223D490224032508263C489F4220
:1028A00021D13A4B10331F6847F400271F601B6883
:1028B00003F4002305930B6843F004030B600968DD
:1028C00002AB01F004010591A902CDE9001483E8EF
:1028D00064006946FEF75EF9002211463420FEF7D7
:1028E000BFFA342027E0294BDFF8A8C0143367452E
:1028F00025D1186840F010001860186800F010002A
:102900000590086840F0010008600868029200F035
:10291000010005904FF4C060CDE900040720CDE927
:10292000035069461C48FEF735F900221146252060
:10293000FEF796FA2520FEF785FA07B0F0BDDFF81E
:102940005CC06745F9D11F6847F020071F601B680E
:1029500003F0200305930B6843F004030B60096840
:1029600002AF01F004010591C021CDE9001487E810
:1029700064006946FEF70EF9002211464720FEF773
:102980006FFA4720D7E70000004C00403038024083
:102990000008024000100140000002400014014005
:1029A00090F84230202B01D00220704721B11AB19B
:1029B0000023036301F0B6BA0120704710B5002868
:1029C00035D000681A49884203D1BDE8104000F0B4
:1029D0005FBF184988422AD11749022091F89641D1
:1029E00003F0AEF8F0B11448B0F8941100F5887017
:1029F00080290BD390F88210491C01F07F01A0F8C8
:102A00008210B0F88410491EA0F88410B0F880102D
:102A1000445410F8801F491C01F07F010180818817
:102A2000491C8180BDE81040022003F0B1B810BD00
:102A300000100140004C0040242200202DE9F84302
:102A4000044690F84100984616460D46202802D0CC
:102A50000220BDE8F88385B17EB1002060642120AA
:102A600084F84100FEF78EF9A6848146E684A068CA
:102A70002027B0F5805F02D003E00120E9E720695C
:102A800010B12E4600250EE000260CE080212046E5
:102A900001F063FAA8B9C6B116F8010B21684860C5
:102AA000E08C401EE084E08C4B464FF00002CDF8F5
:102AB00000800028EAD14FF04001204601F04DFA95
:102AC00040B184F841700320C3E735F8020BC0F32E
:102AD0000800E3E784F841700020BAE77047FEE79A
:102AE000F0B500230A24302537261F4611E000BF29
:102AF000B4EB107F02D905EB107C01E006EB107CF3
:102B000001F813C001EB430C00015B1C8CF8017051
:102B1000DBB29342ECD3F0BD154808B5016841F033
:102B200020010160016801F020010091016841F07D
:102B300080010160016801F080010091016841F0AD
:102B400002010160016801F002010091016841F099
:102B500004010160016801F004010091016841F085
:102B600001010160006800F00100009008BD000054
:102B7000303802400B4810B509490160A721416077
:102B8000002141F28732C0E9021201618161FFF741
:102B9000B9F9002803D0BDE81040FDF78CBF10BD87
:102BA000004801404C02002010B588B01C21684646
:102BB000FDF72EFD17481649002401605321C0E996
:102BC000011442F20F71C0E9031480218161FFF703
:102BD000CFFB08B1FDF76FFF6020009040F2DC50A2
:102BE000CDE90104002269460A480494FFF757FB27
:102BF00008B1FDF760FF042269460648FFF74FFB66
:102C000008B1FDF758FF0348FFF7CEFA08B010BD32
:102C1000001800409402002010B588B01C216846BE
:102C2000FDF7F6FC15481449002401605321C0E962
:102C3000011444F61F61C0E903148461FFF762F9CF
:102C400008B1FDF738FF0D48FFF792FB08B1FDF71B
:102C500032FF6020CDE90004029400226946074853
:102C60000494FFF71CFB08B1FDF725FF0348FFF7AD
:102C70009BFA08B010BD0000001C0040DC020020E0
:102C800010B588B01C216846FDF7C2FC15481449F0
:102C9000002401605321C0E9011444F61F61C0E91A
:102CA00003148461FFF72EF908B1FDF704FF0D4806
:102CB000FFF75EFB08B1FDF7FEFE6020CDE90004E2
:102CC00002940022694607480494FFF7E8FA08B125
:102CD000FDF7F1FE0348FFF767FA08B010BD0000EA
:102CE000002000402403002010B58AB0002407947F
:102CF0001C2168460894FDF78BFC1A484FF0804170
:102D000001605321C0E9011441F28731C0E9031485
:102D10008461FFF72DFB08B1FDF7CDFE079407A9ED
:102D200010480894FFF7A6F808B1FDF7C4FE60202C
:102D3000CDE900040294002269460A480494FFF792
:102D4000AEFA08B1FDF7B7FE042269460548FFF761
:102D5000A6FA08B1FDF7AFFE0248FFF725FA0AB060
:102D600010BD0000040200200C4810B50A490160A3
:102D70004FF4E1314160002181600C22C160C0E963
:102D800004128161C161FFF749FD002803D0BDE84D
:102D90001040FDF790BE10BD004C00406C030020B9
:102DA0000C4810B50A4901604FF4165141600021EA
:102DB00081600C22C160C0E904128161C161FFF72A
:102DC0002DFD002803D0BDE81040FDF774BE10BDF6
:102DD00000100140B40300200C4810B50A490160FE
:102DE0004FF4E1314160002181600C22C160C0E9F3
:102DF00004128161C161FFF711FD002803D0BDE815
:102E00001040FDF758BE10BD00140140FC03002027
:102E100010B500220F49104801F0EAFC08B1FDF797
:102E20004AFE0E490C4801F0FFFE08B1FDF743FED3
:102E30000B49094801F0A4FA08B1FDF73CFE064829
:102E400001F076FF002803D0BDE81040FDF733BE47
:102E500010BD00000000002044040020CC00002031
:102E600050000020FEE7FEE70148FEF777B90000BA
:102E7000401B00202DE9F04103680D4604461E6CFE
:102E800003EB4511D1F8080B94F806E04FF4004726
:102E90004FF0200C04F29C42BEF1010F09D0DFF884
:102EA00098E0764539D1020432D500BFC1F8087BDD
:102EB0003FE0224B5FEA007E04D59E4239D90004F0
:102EC000F4D436E05FEA806E02D5C1F808CB30E07A
:102ED00010F0280F2DD19E4201D90004E6D405EB55
:102EE000C50004EB8000D1F8101BD0F87432C1F398
:102EF0001201591AC0F8681200F51570ADB90369CE
:102F00001BB1C2681144C1600FE0012120680AE0D2
:102F100080060AD5C1F808CB07E035B9D4F86402B9
:102F200018B90021184602F085FAE9B22046FDF7EB
:102F3000FDFF0020BDE8F0810A31544F0A30544FA4
:102F40002DE9F84F0E4601EBC60100EB81048146E6
:102F50000568D4E909101434884202D90120BDE87B
:102F6000F88F081AA168814200D20846C01C870861
:102F700005EB46181BE000BFA0EB010AA068504516
:102F800000D282460AF10300870899F806000090F3
:102F90001FFA8AF3F2B22846E16802F089FDE1687F
:102FA00001EB0A00E060616901EB0A006061D8F89A
:102FB000180980B2B84205D3D4E90401814201D294
:102FC0000028D9D1D4E90401884208D806F00F01BD
:102FD00001208840D5F834188143C5F83418002002
:102FE000BDE7F5EEC00AF1EE10FA0DD9B4EEE00A35
:102FF000F1EE10FA06DCF1EE600AB4EEE00AF1EE52
:1030000010FA01D2B0EE600A704710B5040007D084
:1030100009B100F017F82046BDE8104000F002B8F2
:1030200010BD000000280AD000219FED050A80EDA8
:10303000060A80ED070A80ED080A80F82410704720
:1030400000000000002804D0002902D01822FDF75B
:103050008BBA704710B504002DED048BB0EE419A89
:10306000DFED2C8A04D0B5EEC09AF1EE10FA04D848
:10307000B0EE680ABDEC048B10BD30EE608A94EDB2
:10308000050AB5EEC00AF1EE10FA12DDB5EEC08AFF
:10309000F1EE10FAF0EE480A01D2F1EE600AF4EE19
:1030A000C00AF1EE10FA04D8B0EE688AC4ED068AC0
:1030B0000BE094ED060A08EE090A84ED060AD4ED49
:1030C000030AFFF78EFF84ED060A94F82400E0B1AE
:1030D00094ED070A38EE400AC0EE098A94ED010A21
:1030E000D4ED060A20EE200AD4ED000A00EE880A8C
:1030F000D4ED020A00EEA80AD4ED040AFFF771FF2E
:1031000084ED078A84ED080AB4E7012084F82400DE
:10311000E4E70000000000007047000070B5374C85
:10312000002584F83E5094F86500002864D02146BC
:10313000012891F8642091F8541010D0022812D080
:1031400001210226042816D0032803D0052801D027
:10315000062851D132B300F061F800202FE0002A98
:103160004AD0012001E022B10220BDE8704000F009
:10317000F1B90521F8E7022A14D300F04FF894F8CA
:10318000540084F8660094F8551084F8671084F8A9
:10319000766004F8386F04216170A670E5702071C4
:1031A00066711EE004F83A1FA570BDE8704000F09B
:1031B000C3B92118401C11F8542FC0B28A7494F876
:1031C00064108142F5D8C8B284F8760004F8386FEC
:1031D00094F82D106170A670E57094F82E1021718E
:1031E0006071E571257200F041FCC4E90405A56138
:1031F000BDE8704000F058B970BD00007026002096
:103200000549002048658865C865086681F864003E
:1032100081F83E00704700007026002010B5102194
:103220000848FDF7D3F907480021663800F8761FF3
:103230004170817000F83B1C00F83A1C00F8391C02
:1032400010BD0000D6260020104890F83910022941
:103250001AD0032909D0042907D0072905D0052948
:1032600005D0062903D0008870471420704790F8D5
:103270003C10042908D190F83B1090F87600491CC6
:10328000814201D2162070470F207047702600201F
:1032900000487047A82600200E4991F83B20BAB993
:1032A00091F8773001228BB191F878305B1CDBB25A
:1032B00081F87830022B0BD381F83F208A6C0AB159
:1032C000801A0865042081F83A00704781F8772059
:1032D00000F0AAB9702600202DE9F0413A4CA1284F
:1032E00084F841001ED00226A2281DD0B12824D087
:1032F000B22826D0B32826D0B42826D0B52826D088
:1033000000270125AA2825D02146A0F1F10291F835
:103310003E10092A4FD2DFE802F03F30323436380F
:103320003A3C3E00012009E00521022000F012F99C
:1033300084F86560FFF764FF3AE0032000F04CF981
:1033400036E00420FAE70520F8E70620F6E700F06B
:1033500025F92DE094F8390000282AD0FFF750FF16
:1033600084F83E5094F83900022821D004F83A5FDE
:10337000A770E77000F0E0F81AE035460CE003258E
:103380000AE0042508E0052506E0062504E00725F7
:1033900002E0082500E0092569B194F864001028CE
:1033A00006D209495431455414F8640F401C20706A
:1033B0000120BDE8F081BB2803D111B1FFF7AEFEBB
:1033C000F6E70020F5E700007026002070B50C46F7
:1033D00005467C211E48FDF71BF91D4A16204FF4B7
:1033E0007A6110801A2050809580D48040F6B830E1
:1033F0001081518190811046372141822825858294
:103400004FF4A573C382302404834FF416744483AD
:103410008583C183E900018441848184C48401855A
:103420003821418540F24E218185C385018640F2D5
:10343000622141864FF413718186002082F83800A2
:1034400082F8390082F83A00BDE8704000F074B8A4
:1034500070260020054890F8381029B190F83C00FB
:10346000002800D0012070470020704770260020FF
:103470000C4B10B5B3F84240844201D8001B00E069
:10348000201AB3F844308B4201D8C91A00E0591A07
:10349000404301FB01005243904201D8012010BD7E
:1034A000002010BD70260020074890F83C1009B19C
:1034B000092901D900F040B800EB8101CA8920F840
:1034C000422F098A41807047702600200D4810B5B0
:1034D00090F83B1090F87620491C914201D30020CF
:1034E00010BD084AC9B2663280F83B10895C80F88A
:1034F0003C100021C164022180F83A10FFF7D4FF8C
:10350000012010BD7026002070B50A4D0948002426
:1035100005F8384F1C213830FDF77AF82C70AC7064
:10352000FFF76EFE85F82D40FFF778FEBDE870408E
:1035300000F002B87026002005488188A0F84210EB
:10354000C188A0F84410002180F83C1070470000AA
:103550007026002070B50E46054600F05DF80E4C52
:1035600004F8380F02206570A0700025E5712572FF
:1035700000F07CFAC4E90405A561FFF74FFE84F86A
:103580002E60012084F83E006071E5702671BDE870
:103590007040FFF789BF00007026002070B50D4C09
:1035A0000220002504F8380F072060700120A07069
:1035B000E571257225616561A561E570257165710B
:1035C000FFF72CFEFFF71CFE84F82D50BDE870407D
:1035D000FFF7B2BF7026002070B5054600F01CF85A
:1035E0000C4C002104F8380F01206570A070E171C7
:1035F000217221616161A161E17021716171FFF747
:103600000DFEFFF7FDFD84F82D50BDE87040FFF77B
:1036100093BF000070260020012803D0022801D0AB
:1036200002207047012070470C48002190F83B2091
:103630007AB180F83B1000BF084A90F83B30663200
:103640009A5C80F83C20C164022180F83A10FFF7B0
:103650002BBF012280F83B20EEE7000070260020FF
:103660002DE9F05F6F4C05468B46DDE90A0994F8B9
:1036700038109246002639B1A04694F83910012737
:103680000224072906D01AE0FFF756FF84F83A60B3
:10369000BDE8F09F98B193B1092B10D898F83C1071
:1036A000404699420BD000F83C3F00F8016C47704F
:1036B000C6700671066188F83A40FFF7F5FEFFF71D
:1036C000F3FE4046D8F848104FF0040839B190F89E
:1036D0003F203AB9A9420CD8691A016509E090F86F
:1036E0003F1031B190F83910072902D080F83A80A4
:1036F000CEE790F83C1099B1B9F1000FC8D08146DF
:1037000090F83900012812D0022810D0072819D0CB
:1037100099F83A10032923D0FFF796FD024629E0D5
:1037200090F839100729B3D180F83A70B0E7FFF765
:103730008BFD024651465846FFF79AFE68B189F85C
:103740003F7007E0FFF780FD024651465846FFF7FD
:103750008FFE10B189F83A809AE789F83A4097E7E6
:10376000032819D0042817D0052815D0062813D00F
:10377000B9F8022051465846FFF77AFE70B199F821
:10378000391003204C4605290DD006290BD084F8AA
:103790003A00E06C28B325E01822EBE789F83A40BC
:1037A000C9F84C6074E794F83B1094F87620491CF3
:1037B000914203D2BDE8F05FFFF788BE84F83A007B
:1037C000E06C58B1A189281A884291D384F83F70DF
:1037D000A06C0028BED0281A2065BBE7C9F84C5061
:1037E00056E7E564E06C0429A5EB000010D02189C0
:1037F00088429BD3E664FFF769FE002896D184F8DF
:103800003F70A06C08B1281A206584F83A803FE721
:10381000B9F80A10884289D32846BDE8F05FFFF75F
:103820003BBD00007026002070470178407841EAD7
:103830000020704723210148FCF7C8BEBC230020AC
:1038400008B523210848FCF7C1FE0849002008708C
:1038500007490A68136852680092486400F07AF8D1
:10386000002800D0012008BDBC2300205801002002
:10387000B4030020054882B0002201680B68496843
:103880000091426402B000F065B80000B40300206B
:103890000F4801780F4890F82220202A09D390F889
:1038A00021305B1C03F01F0380F82130521E80F88A
:1038B000222090F82020815410F8201F491C01F08C
:1038C0001F0101708178491C817000F043B800002D
:1038D00058010020BC23002090B10A4991F8222011
:1038E00072B191F821208A5C027011F8210F401CFE
:1038F00000F01F0008704878401E48700120704793
:1039000000207047BC23002000B589B060B1027868
:1039100052B1034600910CA2202101A8FCF746FDFC
:10392000002801DD1D2802D9012009B000BD01AA2F
:10393000FF2111540244C01C5170917082B201A940
:10394000002002F045F9F0E725732E76616C3D25E5
:103950006C750000012202490248FFF721B80000FF
:1039600058010020B403002010B5044600F00AF806
:1039700030B12046BDE8104040F2DC51FCF7A4BF56
:10398000012010BD062801D3002070470120704798
:1039900070B50C460546FFF7F5FF38B14FF4FA70E5
:1039A00040F6C411844203D2044604E0012070BDF5
:1039B0008C4200D90C4621462846BDE87040FCF7F1
:1039C0009BBFFDF7E5B9000030B593B030216846E4
:1039D000FCF71EFE14210CA8FCF71AFE1D4800255A
:1039E000016841F080510160006800F08050119042
:1039F0001948016841F4804101600068022400F424
:103A00008040119001200090000401908001CDE9D8
:103A1000064004200890A820CDE9090407200B9057
:103A20006846FEF75BF808B172B6FEE70CA90F20F6
:103A300081E831004FF4A0500F904FF48050109067
:103A400005210CA8FDF75AFF002801D072B6FEE749
:103A500013B030BD40380240007000400248016899
:103A600041F470010160704788ED00E0FDF78AB90C
:103A70000148FEF701BB00004C020020F0B50268CF
:103A8000274B284D284E294F294C4FF0804C984207
:103A900009D0604507D0A84205D0B04203D0B84253
:103AA00001D0A04204D122F0700E4A6842EA0E0210
:103AB00098421BD0604519D0A84217D0B04215D00B
:103AC000B84213D0A04211D01A4DA8420ED01A4DC0
:103AD000A8420BD0194DA84208D0194DA84205D0D4
:103AE000184DA84202D0184DA84203D122F44075C7
:103AF000CA682A434D6922F080022A438D68C56254
:103B00000D688562984201D0A04201D10969016324
:103B1000016841F004010160012141610260F0BDD2
:103B2000000001400004004000080040000C00407C
:103B300000040140004001400044014000480140B1
:103B400000180040001C00400020004010B501F0AB
:103B50001F030121046A99408C430462016A9A4060
:103B60001143016210BD0000F0B5036A026A22F041
:103B70000102026242688469124E24F073050C68E7
:103B80002C4323F002058B682B430D4DA84201D036
:103B9000B04205D123F00807CB683B4323F0040370
:103BA000A84201D0B04205D14D6922F440721543BC
:103BB0008A692A4342608461496841630362F0BDB7
:103BC0000000014000040140F0B5026A036A23F0DE
:103BD00010030362436884690D6824F4E64444EAF0
:103BE00005248D6822F0200242EA05120F4D104E86
:103BF000A84201D0B04206D1CF6822F0800242EA4A
:103C0000071222F04002A84201D0B04207D14D690C
:103C100023F4406343EA85038D6943EA85034360E7
:103C20008461496881630262F0BD000000000140C8
:103C300000040140F0B5026A036A23F48073036252
:103C40004368C46922F4007224F073050C68124EB4
:103C50002C438D6842EA05220E4DA84201D0B042A5
:103C600006D1CF6822F4006242EA072222F4806281
:103C7000A84201D0B04207D14D6923F4405343EA32
:103C800005138D6943EA05134360C4614968C16344
:103C90000262F0BD000001400004014030B5046A3A
:103CA000026A22F4805202624268C3690D6823F4FA
:103CB000E64343EA05238D6824F4005444EA0534BE
:103CC000084DA84202D0084DA84204D14D6922F403
:103CD000804242EA85124260C3614968016404621D
:103CE00030BD000000000140000401400148FEF723
:103CF00055BC00006C03002010B5806B0021C1850D
:103D0000FEF738FC10BD01680C3151E8002F22F499
:103D1000907241E80023002BF5D10168143151E87D
:103D2000002F22F0010241E80023002BF5D1016BA6
:103D3000012909D101680C3151E8002F22F010024D
:103D400041E80023002BF5D1202180F8421000210A
:103D50000163704708B590F84210222901D0022073
:103D600008BD82684FF480539A4201D1016921B1A4
:103D7000816A9A421BD04AB10AE00268816A52689D
:103D8000C2F308020A80816A891C08E0026972B1E4
:103D90000268526802F07F020A70816A491C8162DF
:103DA000C18D491E0904090CC18503D01BE00268BE
:103DB0005268F1E70168CA6822F02002CA6001680F
:103DC000CA6822F48072CA6001684A6922F001025E
:103DD0004A61202180F8421000214163026B012AD0
:103DE00003D0FEF7EBFD002008BD016301680C3134
:103DF00051E8002F22F0100241E80023002BF5D1FA
:103E000001680A68D20602D50A6849680091818D66
:103E1000FEF7AFFBE7E7000070B5044600680169F4
:103E2000E26821F44051114301612169A068E2690F
:103E300008436169114308432168CA6849F20C6369
:103E40009A430243CA6020684169A26921F4407123
:103E50001143416131492068884202D0304988428B
:103E600002D1FDF7FBFD01E0FDF7E8FDE26900236B
:103E7000192164253226B2F5004F626828D0A0FBD4
:103E80000101930F9200FCF719FA0146B0FBF5F01F
:103E90006FF01802504301EB800006EB0010B0FBFE
:103EA000F5F000F0F002B1FBF5F002EB0012B1FB0F
:103EB000F5F06FF01803584301EB800006EB00109B
:103EC000B0FBF5F000F00F0021681044886070BD71
:103ED000A0FB010192185B41FCF7F0F90146B0FB31
:103EE000F5F00201B1FBF5F06FF01803584301EB58
:103EF000800006EBC000B0FBF5F000F0F80002EB2C
:103F00004002B1FBF5F0584301EB800006EBC00026
:103F1000B0FBF5F000F00700D6E70000001001400C
:103F20000014014081628285C28500214164222102
:103F300080F84210016921B10168CA6842F48072B8
:103F4000CA6001684A6942F001024A610068C168BA
:103F500041F02001C160002070472DE9F8439846E8
:103F600017460D460446089E24E0701C22D0FCF73C
:103F700009FFA0EB0800B0421AD8CEB12068C16892
:103F8000490717D5802D15D0402D13D00168C9439E
:103F900009070FD401680025406800902046FFF70C
:103FA000B2FE0820606484F840500120BDE8F88328
:103FB0000320FBE72068006835EA000004D00020F9
:103FC000B842D2D00020F1E70120F9E70148FEF71E
:103FD000E5BA0000B40300200148FEF7DFBA000094
:103FE000FC0300202DE9F0410C46D0F8D412D0F8A3
:103FF000C82200EB8101D1F8C01229B304F00F06EA
:1040000006EB860300EB830500276B694BB106EBDB
:10401000C60602EB8602D269B3FBF2F602FB163249
:10402000A2B1C1F81472D0F8D42200EB8200D0F80B
:10403000C40203692BB1D1F80802224601F50471CC
:1040400098470020BDE8F0810320FBE700231A46D3
:1040500021466F6100F0C9FDF3E770B50546D0F861
:10406000D40205EB8000D0F8C04294B1284600F09D
:104070009BFCC4F80C02D5F8D412D4F8040205EB6A
:104080008101D1F8C412CA6804F503719047002079
:1040900070BD032070BD000070B5234D0446297823
:1040A00000F0C2FB2878002600F00F0000EB800033
:1040B00004EB800080F823606978204600F0B4FBB0
:1040C000687800F00F0000EB800004EB800080F8BF
:1040D0006361A978204600F0A7FBA87800F00F00E4
:1040E00000EB800004EB800080F82360C661D4F808
:1040F000D40204EB8000D0F8C01299B1D0F8C40209
:1041000040688047D4F8D40204EB8000D0F8C002A5
:1041100000F092FFD4F8D40204EB8000C0F8C06233
:10412000C4F8BC62002070BD7800002010B5D0F843
:10413000D41200EB8100D0F8C04284B1D0F8C41290
:1041400059B194F80002FF2807D08B6894F8012237
:1041500021469847FF2084F80002002010BD03206C
:1041600010BD00000A210180004870477C0000203B
:1041700070B5064682210C4800F0D9FA05460121A7
:10418000094800F0D4FA04468121074800F0CFFA2C
:104190000DB11021A971402104B1A18000B181802D
:1041A00043203080004870BD8800002070B506466E
:1041B00082210D4800F0BBFA054601210A4800F0B3
:1041C000B6FA04468121084800F0B1FA0DB1102179
:1041D000A9714FF4007104B1A18000B18180432026
:1041E0003080014870BD00008800002070B5064690
:1041F00082210C4800F09BFA05460121094800F095
:1042000096FA04468121074800F091FA0DB1102179
:10421000A971402104B1A18000B181804320308088
:10422000004870BD880000202DE9F04704464FF497
:104230000775284600F002FF06004FF0000865D021
:104240002946FCF7E5F9D4F8D4023E4D04EB800092
:104250004FF01009C0F8C062C4F8BC62207C4FF473
:10426000007A0127E8B3402302222978204600F093
:1042700006FC2878402300F00F0000EB800004EBE0
:10428000800080F8237002226978204600F0F7FB56
:104290006878082300F00F0000EB800004EB80003A
:1042A000032280F86371A978204601F00F0101EB29
:1042B000810104EB8101C1F81C90A97800F0DFFBBB
:1042C000A87800F00F0000EB800004EB800080F87D
:1042D0002370C6F80482D4F8D402474604EB800069
:1042E00000E01BE0D0F8C40206F5017600688047C4
:1042F0003761776132687AB1207C00B340236978F6
:10430000204600F0C8FB0020BDE8F087D4F8D412A6
:1043100004EB8101C1F8C0820220F5E75346022276
:104320002978204600F0ABFB2878534600F00F00B8
:1043300000EB800004EB800080F82370A3E7534675
:10434000DDE700007800002010B5D0F8D41200EBB3
:104350008101D1F8C01259B1027C084C002AD1F871
:10436000042207D04023617800F095FB002010BDA7
:10437000032010BD4FF40073F5E700007800002023
:1043800039B1D0F8D42200EB8200C0F8C41200206A
:10439000704703207047D0F8D42200EB8200D0F899
:1043A000C00218B1C0F80412002070470320704703
:1043B000D0F8D43200EB8300D0F8C00228B1C0F8A6
:1043C0001022C0F8081200207047032070472DE922
:1043D000FC410646D0F8D4020C4606EB80000021D2
:1043E000D0F8C0728DF80010ADF804100D4637B14A
:1043F000217811F060022FD0202A4BD102E0032057
:10440000BDE8FC81E288F2B109060DD5D0F8C402FE
:1044100063783946D0F808C01846E047E288072A92
:1044200000D9072239462DE0607887F80002E0883D
:10443000402800D34020C2B287F8012239463046D6
:1044400000F058F82BE0D0F8C402637800228668A8
:1044500021461846B04722E0607830B101281ED0CE
:104460000A2809D00B2815D110E096F89C020328E1
:1044700010D1022201A905E096F89C02032809D177
:1044800001226946304600F051F808E096F89C0297
:10449000032804D02146304600F021F803252846A1
:1044A000AEE710B5D0F8B82200245268904700B1AA
:1044B0000324204610BD002070470020704713469B
:1044C00010B50A46002100F0E6FA002010BD1346A0
:1044D00010B50A46002100F088FB002010BD10B581
:1044E0000446802100F062FB2046BDE81040002118
:1044F00000F05CBB10B50323C0F89432C0F854211F
:10450000C0F858211346C0F864110A46002100F093
:10451000C2FA002010BD10B50521C0F89412002386
:104520001A46194600F0B7FA002010BD10B5022354
:10453000C0F8943242618261134641620A4600210A
:1045400000F053FB002010BD10B50421C0F89412F8
:1045500000231A46194600F048FB002010BD000059
:1045600010B50A46024903A000F00FF9004810BD3B
:104570002007002043444320436F6E6669670000B4
:1045800012200880004870472000002010B50A461D
:10459000024903A000F0F9F8004810BD20070020F0
:1045A00043444320496E7465726661636500000090
:1045B00004200880004870471C00002010B50A46FF
:1045C000024903A000F0E1F8004810BD20070020D8
:1045D00053544D6963726F656C656374726F6E6975
:1045E0006373000010B50A46024903A000F0CDF83D
:1045F000004810BD2007002053544D333220566927
:10460000727475616C20436F6D506F72740000009E
:1046100010B51A2008800A480168001D0468001DB2
:104620000068081809D008220649FEF759FA05491A
:10463000042210312046FEF753FA0248801E10BDB6
:10464000107AFF1F36000020F8B504460020ADF8B0
:10465000000048880D46010A08295FD2DFE801F012
:104660005E0409175E5E3C45D4F8B412207C0A68EB
:1046700019E0207C02260028D4F8B80205D0C16ACF
:10468000684688470146467039E0816AF8E7C0B25B
:10469000062843D2DFE800F0030A1014181CD4F8EF
:1046A000B402426805E0694690471CE0D4F8B402C1
:1046B000826892B3207CF6E7D4F8B402C268F8E7C7
:1046C000D4F8B4020269F4E7D4F8B4024269F0E71E
:1046D000D4F8B4028269ECE7207CF0B9D4F8B802CF
:1046E000416B68468847014609E0207CA8B9D4F8A8
:1046F000B802016B68468847014607204870EA887F
:104700008AB1BDF8000040B1824200D90246ADF83E
:1047100000202046FFF70AFFF8BDFFE729462046A4
:10472000FFF7DDFEF8E72046FFF70EFFF4E778B568
:104730000E4642880178002504468A4212D9ADF817
:1047400000100AE0694600F019F84178052904D103
:1047500081780546B14205D000256188BDF800206A
:104760009142EFD8284678BD0146002002E0401C67
:10477000C0B2491C0A78002AF9D170470A88037828
:104780001A440A8001780844704770B516460D46F1
:10479000002820D00446FFF7E7FF022101EB40018B
:1047A0004FF40070814204D82046FFF7DDFF40003F
:1047B000801C30803078287003206870022000222E
:1047C00006E02954401CC0B22A54401CC0B2641CEC
:1047D00021780029F5D170BD01004FF0000004D010
:1047E000012901D0022901D0032070470120704720
:1047F00078B10023C0F8B832C0F8C432C0F8D03263
:1048000009B1C0F8B412012180F89C12027000F0C6
:10481000CFB80320704710B5D0F8C802FCF7C8FB2A
:10482000BDE81040FFF7D8BF10B5D0F8C802FCF7BC
:104830009AFBBDE81040FFF7CFBF70B504460025D6
:1048400021B194F89C02032846D050E0D4F8941289
:1048500004F11400022939D1818942688A420AD9B7
:10486000511A416082890169114401614268204600
:10487000FFF72DFE0FE0914214D10068884211D35A
:10488000D4F8981288420DD2002211462046FFF734
:104890001EFEC4F8985200231A461946204600F01E
:1048A000FAF813E094F89C02032808D1D4F8B8026F
:1048B000C16821B1C4F8D452C1682046884780211C
:1048C000204600F073F92046FFF725FE94F8A00279
:1048D00068B184F8A0520AE0D4F8B802426932B153
:1048E000C4F8D452426920469047002800D10020E5
:1048F00070BD10B50446002221B194F89C02032833
:1049000034D03EE0D4F8941204F5AA70032938D1CB
:10491000818943688B420ED9591A416082890169A5
:104920001144016142688089824200D802462046D3
:10493000FFF7C5FD25E094F8AA0210F01F0003D090
:10494000012802D0022800D0002294F89C020328FB
:1049500008D1D4F8B802016921B1C4F8D4220169A0
:10496000204688472046FFF7EFFD0AE0D4F8B8025A
:10497000836933B1C4F8D422826920469047002865
:1049800000D1002010BD0020704710B50024012187
:1049900080F89C12D0F8B82222B152680179904771
:1049A00000B10324204610BDD0F8C802FCF72DBB8F
:1049B00010B5017839BB15490222C1F8E004C0F8EE
:1049C000C8124FF0A040086004200871CA7100208E
:1049D00088714A728872C87208738873C8730846EF
:1049E000FCF772FE08B1FCF766F880210748FCF777
:1049F0006AFA402200210548FCF769FA8022012169
:104A00000248FCF764FA002010BD0000401B0020A3
:104A10000A0601F07F01D0F8C80201EBC10100EBEA
:104A2000810001D5807D704790F85602704710B51F
:104A3000D0F8D42200EB8202D2F8B82222B190F84A
:104A40009C32032B02D004E0032010BD126A02B195
:104A50009047002010BD10B5D0F8D42200EB8202A0
:104A6000D2F8B82222B190F89C32032B02D004E095
:104A7000032010BD526A02B19047002010BD10B54E
:104A80001C461346D0F8C8022246FCF7C7FABDE818
:104A90001040FFF7A1BE10B5D0F8C802FCF7EFFA3E
:104AA000BDE81040FFF798BE2DE9F0410026012532
:104AB000044680F89C52C4F894626660C4F8A4620C
:104AC00080F8A062D0F8B80230B1426822B100216B
:104AD0002046904700B1032600224023114620467D
:104AE000FFF7CDFF402784F86351A4F860713B467F
:104AF000002280212046FFF7C2FF84F8235027843C
:104B00003046BDE8F08190F89C12042903D190F85A
:104B10009D1280F89C120020704710B590F89C12EE
:104B2000032905D1D0F8B81211B1C96901B188477C
:104B3000002010BD01740020704710B5D0F8C802E5
:104B4000FCF788FEBDE81040FFF746BE70B504468E
:104B500000F2AA20054600F051F80120C4F89402A2
:104B6000B4F8B002C4F8980294F8AA0210F01F0139
:104B70000AD001290ED0022912D000F0800120466F
:104B8000BDE8704000F012B829462046BDE87040EC
:104B900000F0D0B829462046BDE8704000F013BAB6
:104BA00029462046BDE8704000F05AB910B5D0F84B
:104BB000C802FCF780FABDE81040FFF70DBE10B543
:104BC000D0F8C802FCF760FEBDE81040FFF704BE55
:104BD00090F89C12042903D090F89C1280F89D1242
:104BE000042180F89C120020704710B5D0F8C8024C
:104BF000FCF79AFABDE81040FFF7EEBD70B5054628
:104C000011F8010B2870087868704C1C2046FEF7DC
:104C10000CFE6880A41C2046FEF707FEA880A01C9E
:104C2000FEF703FEE88070BD38B504460020ADF8FD
:104C30000000A1B1C4F8B812D4F8D40204EB80008B
:104C4000D0F8B802C16A19B168468847C4F8D002E2
:104C5000D4F8D802401CC4F8D802002038BD032084
:104C600038BD02460020D2F8B832002B02D01B68B3
:104C700010461847704700002DE9F04188462B4E3A
:104C80008978002504463170012906D9414620461D
:104C9000FFF725FC0320BDE8F08194F89C02022771
:104CA00002280CD003281DD041462046FFF717FCF0
:104CB00031782046FFF7F5FB03252846EBE789B35B
:104CC00020466160FFF7CDFF050004D04146204635
:104CD000FFF705FC1DE02046FFF736FC032084F8B3
:104CE0009C02EAE7C1B1606888421BD0C1B220468D
:104CF000FFF7D7FB317820466160FFF7B2FF050070
:104D000010D041462046FFF7EAFB21792046FFF705
:104D1000C8FB84F89C72D0E784F89C7220466160DE
:104D2000FFF7BFFB2046FFF70FFCC6E7740000202B
:104D3000FFF745BF2DE9F0410A78002512F0600227
:104D40000CD0202A01D0402A7DD1D0F8D42200EB0B
:104D50008202D2F8B8229268904731E04B78002264
:104D600001260A2B6FD2DFE803F041666E586E0809
:104D7000056E2D29FFF768FC67E004468888D8B9DE
:104D8000C888C8B94888802816D200F07F0794F8F0
:104D90009C02032810D084F89E7239462046FFF703
:104DA000CCFE2046FFF7D0FB1FB1022084F89C0206
:104DB0004BE084F89C6248E0204644E0FFF75CFF4B
:104DC000054642E0CB88012B3DD190F89C32012B67
:104DD00004D0022B02D0032B35D104E082600122E3
:104DE00000F1080116E00122011D13E090F89C2259
:104DF000012A03D0022A01D0032A24D1CA88022A18
:104E000021D1C660D0F8A41209B10321C1600222E9
:104E100000F10C01FFF78AFB17E04A88012A02D053
:104E2000022A03D00FE0C0F8A46216E08988090ABC
:104E300080F8A01211E090F89C32012B08D0022BD0
:104E400006D0032B04D0FFF74AFB2846BDE8F081CB
:104E500049880129F9D1C0F8A422FFF775FBF4E7CE
:104E60002DE9F041054608780C790E464FF0000810
:104E700010F060000BD0202801D040286BD12146D3
:104E80002846FFF718FBFF2800D0D8B398E07078C9
:104E9000C8B3012824D003285DD195F89C020228CC
:104EA00002D0032857D10CE0002C54D0802C52D0D3
:104EB00021462846FFF77AFE80212846FFF776FE36
:104EC0007EE0708840B93CB1802C05D0C88818B904
:104ED00021462846FFF76AFE2846FFF735FB6FE0BC
:104EE00095F89C020228DFD0032866D1708888BB21
:104EF000600603D021462846FFF78DFC2846FFF7C1
:104F000023FBBCE700E00AE0C5F8D402D5F8B802FC
:104F10008268FAB1314628469047804650E095F8BD
:104F20009C020027022802D0032846D114E00CB1CD
:104F3000802C42D1200604F07F0000EB800005EBBE
:104F4000800101D5143101E001F5AA71022201F8B6
:104F50000E7F2EE034E030E0200604F00F0000EB7E
:104F6000800005EB80000AD590F8230028B304F0F8
:104F70007F0000EB800005EB800614360AE090F815
:104F80006301D0B104F07F0000EB800005EB8006E8
:104F900006F5AA764CB1802C07D021462846FFF7AB
:104FA00037FD10B10120B07300E0B773022206F1A3
:104FB0000E012846FFF7BAFA02E02846FFF78FFAFB
:104FC0004046BDE8F08170B50546087800240E46DD
:104FD00010F0600003D0202801D0402827D195F898
:104FE0009C02012803D0022801D003281FD1B088D9
:104FF000C1B201291AD8C1B22846FFF75EFAFF28CC
:105000000CD058B9D5F8B8128A683AB1C5F8D402AC
:105010008A68314628469047044600E00324F08819
:10502000204307D12846FFF78FFA03E03146284690
:10503000FFF755FA204670BD7047000000487047E2
:105040002019002070B50A78012302F00F054E7870
:10505000AB401B4CD0F81C58012E17D045EA034337
:10506000C0F81C3800EB4210D0F8002B12040BD40F
:10507000D0F8002B0B890979C3F30A031A4344EAD9
:1050800081410A43C0F8002B002070BD9BB21D4334
:10509000C0F81C5800EB4210D0F800391B04F3D4C0
:1050A000D0F800390D890979C5F30A0589042B4325
:1050B00041EA82510B432343C0F80039E4E7000082
:1050C00000800010D0F800196FF30A01C0F8001931
:1050D000D0F8041841F48071C0F80418002070471B
:1050E00070B50D460446C2F3072104981E460129F7
:1050F0001BD0E06840F04000E060204600F032F84D
:10510000C6F307210029A16B26D021F48031A163C9
:10511000C5F30741012907D1A16841F00601A1604B
:10512000A16841F02001A16070BDA16B21F4803124
:10513000A163E1680A4A1140E160E16821F440118D
:10514000E160C0B2012803D1E06840F48010E06063
:10515000204600F007F8DBE741F48031D7E7000094
:10516000BFFFBDFF08B5002100914FF07061009AAC
:10517000521C00928A4210D80269002AF7DA0A22E9
:105180000092521E0092FCD1026942F001020261BB
:10519000009A521C00928A4201D9032008BD02697C
:1051A000D207F5D1002008BD30B54C780A7801232C
:1051B00000EB4212012C2CD0D2F8004B002C0BDA61
:1051C000D2F8004B44F00064C2F8004BD2F8004B18
:1051D00044F08044C2F8004BD0F83C580C7804F0FE
:1051E0000F0403FA04F425EA0444C0F83C48D0F85C
:1051F0001C48097801F00F018B4024EA0341C0F8F4
:105200001C18D2F8000B19490840C2F8000B002006
:1052100030BDD2F80049002C0BDAD2F8004944F036
:105220000064C2F80049D2F8004944F08044C2F852
:105230000049D0F83C480D7805F00F0503FA05F554
:10524000ADB2AC43C0F83C48D0F81C48097801F036
:105250000F018B4099B28C43C0F81C48D2F800096A
:1052600003490840C2F80009D1E700000078F3EFD5
:10527000007833ECD0F8001E21F00301C0F8001EC6
:10528000D0F8041821F00201C0F80418002070477B
:10529000D0F8001E21F00301C0F8001ED0F8041859
:1052A00041F00201C0F80418002070472DE9F04FCA
:1052B00000250E46044617462846294604EB800280
:1052C000C2F80411401C0F28F8D3C3F307405FEA6B
:1052D0000009204616D0806B20F40012A263A06B58
:1052E00040F40022A263084688462146C4F8000E16
:1052F000C7F30720012817D00846D1F8001841F05D
:10530000030118E0D0F8040840F00202C4F80428B1
:10531000A06B40F40012A263A06B20F40022A263F1
:10532000A06B20F48022DDE7300E0846D1F800188B
:1053300001D041F00101C0F80018102100F08BFAF3
:1053400000B10125204600F06AFA00B1012540466F
:10535000C4F81088C4F81488C4F81C8800214FF0E1
:10536000006B4FF0904E4FF67F3AF2B215E000BF5F
:1053700004EB4113D3F800C9BCF1000F06DA11B1F8
:10538000C3F800E904E0C4F800B901E0C3F800097B
:10539000C3F81009C3F808A9491C8A42E8D80021BB
:1053A00015E000BF04EB4113D3F800CBBCF1000FB4
:1053B00006DA11B1C3F800EB04E0C4F800BB01E069
:1053C000C3F8000BC3F8100BC3F808AB491C8A42A2
:1053D000E8D8D4F8101821F48072C4F81028A0611D
:1053E0006FF080406061C6F3074018B9A06940F0D3
:1053F0001000A061A0690A490843A061C7F30740F3
:1054000018B1A06940F00800A061B9F1010F03D103
:10541000A06904490843A0612846BDE8F08F000058
:1054200000383C8004000040816821F00101816067
:105430000020704710B5036C134CA34203D9D0F879
:10544000003B002B1EDB0023C0F8103BD0F8103BC4
:1054500043F40023C0F8103BD0F8103B43F018038E
:10546000C0F8103BD0F8103B43F0C043C0F8103BED
:10547000012907D1C0F8142BD0F8001B41F080217E
:10548000C0F8001B002010BD0A30544F4A780B783A
:10549000012A00EB43100BD0D0F8002B22F40012AD
:1054A000C0F8002B0979032914D0022912D017E083
:1054B000D0F8002922F40012C0F800290979032944
:1054C00001D002290CD1D0F8001941F08051C0F868
:1054D000001905E0D0F8001B41F08051C0F8001B16
:1054E000002070470A784B78D1B200EB4110012BB5
:1054F00012D0D0F8001B002906DB2AB1D0F8001B1F
:1055000021F08041C0F8001BD0F8001B41F40011CD
:10551000C0F8001B00207047D0F80019002906DBF6
:105520002AB1D0F8001921F08041C0F80019D0F854
:10553000001941F40011C0F80019EBE7F8B50C7838
:105540004F788B4DE3B26FF0604600EB4313012FB1
:1055500029D0D3F8107B6FF31207C3F8107BD3F870
:10556000107B2F40C3F8107B002C7DD00D69002DDF
:105570007BD08C6825446D1EB5FBF4F5ADB26C4351
:105580000C62D3F8104B06EAC5452C43C3F8104B08
:10559000D3F8104B0D6AC5F312052C43C3F8104B1A
:1055A000012A70D0CBE00F69EFB1D3F810796FF317
:1055B0001207C3F81079D3F810792F40C3F8107987
:1055C0000CB30F698D682F447F1EB7FBF5F5D3F838
:1055D0001079ADB206EAC5463743C3F810790E79A3
:1055E000012E1CD02AE0D3F810692E40C3F81069B0
:1055F000D3F8105945F40025C3F81059D3F81059C1
:105600006FF3120520E00E698D68AE4200D90D617E
:10561000D0F8105945F40026C0F810690EE0D3F810
:10562000106926F0C046C3F81069D3F810694FF02E
:10563000C04707EA45752E43C3F81069D3F81059DF
:105640000E69C6F312063543C3F81059012A1BD060
:1056500000EB4413D3F8004944F00444C3F8004974
:105660000C79012C31D001E044E057E00A695AB3CB
:10567000D0F83428097801F00F03012199400A433A
:10568000C0F8342871E056E0CA691AB100EB44133F
:10569000C3F81429097901290ED1D0F80818C905D1
:1056A00000EB4411D1F8002902D442F0005201E08D
:1056B00042F08052C1F8002900EB4410D0F80019E4
:1056C00041F00441C0F800194FE0D0F80848E40563
:1056D000D3F8004902D444F0005401E044F080546F
:1056E000C3F8004900920A8A93B20A78C96800F0A8
:1056F000DFF93AE00C690CB18C680C618C680C62C3
:10570000D0F8105BC4F312042543C0F8105BD0F846
:10571000104B44F40024C0F8104B41E7D3F8104B71
:105720008D68C5F312052C43C3F8104BD3F8104B0A
:1057300044F4002432E7CA680AB1C3F8142B09798B
:1057400001290CD1D0F80808C005D3F8000B02D409
:1057500040F0005001E040F08050C3F8000BD3F857
:10576000000B40F00440C3F8000B0020F8BD00001F
:10577000FFFF07E038B50022009213464D780A7803
:1057800042F2107400EB4212012D19D0D2F8005BE6
:10579000002D3CDAD2F8005B45F00065C2F8005BF2
:1057A0000A7800EB4212D2F8005B45F08045C2F85F
:1057B000005B009A521C0092A24221D9012326E0EC
:1057C000D2F80059002D22DAD2F8005945F00065D0
:1057D000C2F800590A7800EB4212D2F8005945F09D
:1057E0008045C2F80059009A521C0092A242E5D8A6
:1057F0000A7800EB4212D2F80029002AF3DB06E017
:105800000A7800EB4212D2F8002B002AD1DB1846AE
:1058100038BD816841F0010181600020704708B502
:1058200000214FF070620091009B5B1C009393423B
:105830000AD80369002BF7DA009110210161009961
:10584000491C0091914201D9032008BD0169C90694
:10585000F5D4002008BD18B500224FF07063009207
:10586000009C641C00949C420CD80469002CF7DA5C
:105870000092202242EA811101610099491C0091A5
:10588000994201D9032018BD01698906F5D4002089
:1058900018BDD0F8080810F0060004D0022803D084
:1058A000062801D00F20704702207047406900F0A1
:1058B00001007047D0F81818D0F81C08084080B2D2
:1058C0007047D0F81818D0F81C080840000C704732
:1058D00010B5D0F81038D0F8342801F00F0400EBE0
:1058E0004110E24002F00102D0F8080943EAC21276
:1058F000104010BD00EB4111D1F8081BD0F814087E
:1059000008407047416980690840704730B50346D8
:105910000846940802F00301002203F5805303E0D7
:105920001D6840F8045B521CA242F9D300290BD039
:105930001C680022D50024FA05F3491E521C0904F4
:1059400000F8013B090CF5D130BD70B50446C068C4
:10595000002520F0C040E060012901D079B120E0AD
:10596000E06840F00050E0600A20FBF701F9606950
:105970000A3510F0010F10D1C82DF5D30DE0E06805
:1059800040F08040E0600A20FBF7F2F860690A35D9
:1059900010F0010F01D0C82DF5D3C82D01D0002083
:1059A00070BD012070BDD0F8002822F4FE62C0F85E
:1059B0000028D0F800284FF4FE6303EA01110A43DF
:1059C000C0F8002800207047022A3ED1264A274B03
:1059D0000A449A4201D20F2138E0254A254B0A4455
:1059E0009A4201D20E2131E0234A244B0A449A42C2
:1059F00001D20D212AE0224A224B0A449A4201D2C6
:105A00000C2123E0204A214B0A449A4201D20B2167
:105A10001CE01F4A1F4B0A449A4201D20A2115E09A
:105A20001D4A1E4B0A449A420FD31D4A1D4B0A447D
:105A30009A4201D2082109E01B4A11441B4A9142B3
:105A400001D2072102E0062100E00921C26822F408
:105A50007052C260C2684FF4705303EA81210A4356
:105A6000C260002070470000405327FF00350C0043
:105A7000401E1BFF40420F0000DC0BFF804F120056
:105A8000808CF9FE20D6130060B6E5FE60E31600B8
:105A900000D3CEFE40771B00C05BB3FEC091210057
:105AA00000CA91FE20753800E05459FEE09C410088
:105AB00010B5029C74B9DB1C9C0800EB023000237B
:105AC00000F5805004E000BF51F8042B02605B1C1D
:105AD000A342F9D3002010BD10B5044600F030F801
